{
  "_format": "hh-sol-artifact-1",
  "contractName": "DynamicSvgNft",
  "sourceName": "contracts/DynamicSvgNft.sol",
  "abi": [
    {
      "inputs": [],
      "stateMutability": "nonpayable",
      "type": "constructor"
    },
    {
      "anonymous": false,
      "inputs": [
        {
          "indexed": true,
          "internalType": "address",
          "name": "owner",
          "type": "address"
        },
        {
          "indexed": true,
          "internalType": "address",
          "name": "approved",
          "type": "address"
        },
        {
          "indexed": true,
          "internalType": "uint256",
          "name": "tokenId",
          "type": "uint256"
        }
      ],
      "name": "Approval",
      "type": "event"
    },
    {
      "anonymous": false,
      "inputs": [
        {
          "indexed": true,
          "internalType": "address",
          "name": "owner",
          "type": "address"
        },
        {
          "indexed": true,
          "internalType": "address",
          "name": "operator",
          "type": "address"
        },
        {
          "indexed": false,
          "internalType": "bool",
          "name": "approved",
          "type": "bool"
        }
      ],
      "name": "ApprovalForAll",
      "type": "event"
    },
    {
      "anonymous": false,
      "inputs": [
        {
          "indexed": true,
          "internalType": "address",
          "name": "from",
          "type": "address"
        },
        {
          "indexed": true,
          "internalType": "address",
          "name": "to",
          "type": "address"
        },
        {
          "indexed": true,
          "internalType": "uint256",
          "name": "tokenId",
          "type": "uint256"
        }
      ],
      "name": "Transfer",
      "type": "event"
    },
    {
      "inputs": [
        {
          "internalType": "address",
          "name": "to",
          "type": "address"
        },
        {
          "internalType": "uint256",
          "name": "tokenId",
          "type": "uint256"
        }
      ],
      "name": "approve",
      "outputs": [],
      "stateMutability": "nonpayable",
      "type": "function"
    },
    {
      "inputs": [
        {
          "internalType": "address",
          "name": "owner",
          "type": "address"
        }
      ],
      "name": "balanceOf",
      "outputs": [
        {
          "internalType": "uint256",
          "name": "",
          "type": "uint256"
        }
      ],
      "stateMutability": "view",
      "type": "function"
    },
    {
      "inputs": [
        {
          "internalType": "uint256",
          "name": "tokenId",
          "type": "uint256"
        }
      ],
      "name": "getApproved",
      "outputs": [
        {
          "internalType": "address",
          "name": "",
          "type": "address"
        }
      ],
      "stateMutability": "view",
      "type": "function"
    },
    {
      "inputs": [
        {
          "internalType": "address",
          "name": "owner",
          "type": "address"
        },
        {
          "internalType": "address",
          "name": "operator",
          "type": "address"
        }
      ],
      "name": "isApprovedForAll",
      "outputs": [
        {
          "internalType": "bool",
          "name": "",
          "type": "bool"
        }
      ],
      "stateMutability": "view",
      "type": "function"
    },
    {
      "inputs": [],
      "name": "mintNft",
      "outputs": [],
      "stateMutability": "nonpayable",
      "type": "function"
    },
    {
      "inputs": [],
      "name": "name",
      "outputs": [
        {
          "internalType": "string",
          "name": "",
          "type": "string"
        }
      ],
      "stateMutability": "view",
      "type": "function"
    },
    {
      "inputs": [
        {
          "internalType": "uint256",
          "name": "tokenId",
          "type": "uint256"
        }
      ],
      "name": "ownerOf",
      "outputs": [
        {
          "internalType": "address",
          "name": "",
          "type": "address"
        }
      ],
      "stateMutability": "view",
      "type": "function"
    },
    {
      "inputs": [],
      "name": "s_tokenCounter",
      "outputs": [
        {
          "internalType": "uint256",
          "name": "",
          "type": "uint256"
        }
      ],
      "stateMutability": "view",
      "type": "function"
    },
    {
      "inputs": [
        {
          "internalType": "address",
          "name": "from",
          "type": "address"
        },
        {
          "internalType": "address",
          "name": "to",
          "type": "address"
        },
        {
          "internalType": "uint256",
          "name": "tokenId",
          "type": "uint256"
        }
      ],
      "name": "safeTransferFrom",
      "outputs": [],
      "stateMutability": "nonpayable",
      "type": "function"
    },
    {
      "inputs": [
        {
          "internalType": "address",
          "name": "from",
          "type": "address"
        },
        {
          "internalType": "address",
          "name": "to",
          "type": "address"
        },
        {
          "internalType": "uint256",
          "name": "tokenId",
          "type": "uint256"
        },
        {
          "internalType": "bytes",
          "name": "_data",
          "type": "bytes"
        }
      ],
      "name": "safeTransferFrom",
      "outputs": [],
      "stateMutability": "nonpayable",
      "type": "function"
    },
    {
      "inputs": [
        {
          "internalType": "address",
          "name": "operator",
          "type": "address"
        },
        {
          "internalType": "bool",
          "name": "approved",
          "type": "bool"
        }
      ],
      "name": "setApprovalForAll",
      "outputs": [],
      "stateMutability": "nonpayable",
      "type": "function"
    },
    {
      "inputs": [
        {
          "internalType": "bytes4",
          "name": "interfaceId",
          "type": "bytes4"
        }
      ],
      "name": "supportsInterface",
      "outputs": [
        {
          "internalType": "bool",
          "name": "",
          "type": "bool"
        }
      ],
      "stateMutability": "view",
      "type": "function"
    },
    {
      "inputs": [],
      "name": "symbol",
      "outputs": [
        {
          "internalType": "string",
          "name": "",
          "type": "string"
        }
      ],
      "stateMutability": "view",
      "type": "function"
    },
    {
      "inputs": [
        {
          "internalType": "uint256",
          "name": "tokenId",
          "type": "uint256"
        }
      ],
      "name": "tokenURI",
      "outputs": [
        {
          "internalType": "string",
          "name": "",
          "type": "string"
        }
      ],
      "stateMutability": "view",
      "type": "function"
    },
    {
      "inputs": [
        {
          "internalType": "address",
          "name": "from",
          "type": "address"
        },
        {
          "internalType": "address",
          "name": "to",
          "type": "address"
        },
        {
          "internalType": "uint256",
          "name": "tokenId",
          "type": "uint256"
        }
      ],
      "name": "transferFrom",
      "outputs": [],
      "stateMutability": "nonpayable",
      "type": "function"
    }
  ],
  "bytecode": "0x60806040523480156200001157600080fd5b506040518060400160405280600f81526020017f44796e616d696320535647204e465400000000000000000000000000000000008152506040518060400160405280600381526020017f44534e0000000000000000000000000000000000000000000000000000000000815250816000908051906020019062000096929190620000b8565b508060019080519060200190620000af929190620000b8565b505050620001cd565b828054620000c69062000168565b90600052602060002090601f016020900481019282620000ea576000855562000136565b82601f106200010557805160ff191683800117855562000136565b8280016001018555821562000136579182015b828111156200013557825182559160200191906001019062000118565b5b50905062000145919062000149565b5090565b5b80821115620001645760008160009055506001016200014a565b5090565b600060028204905060018216806200018157607f821691505b602082108114156200019857620001976200019e565b5b50919050565b7f4e487b7100000000000000000000000000000000000000000000000000000000600052602260045260246000fd5b61238280620001dd6000396000f3fe608060405234801561001057600080fd5b50600436106100f55760003560e01c80636352211e11610097578063b88d4fde11610066578063b88d4fde14610284578063c2229fea146102a0578063c87b56dd146102aa578063e985e9c5146102da576100f5565b80636352211e146101ea57806370a082311461021a57806395d89b411461024a578063a22cb46514610268576100f5565b8063095ea7b3116100d3578063095ea7b3146101785780630b21a83b1461019457806323b872dd146101b257806342842e0e146101ce576100f5565b806301ffc9a7146100fa57806306fdde031461012a578063081812fc14610148575b600080fd5b610114600480360381019061010f9190611730565b61030a565b6040516101219190611a84565b60405180910390f35b6101326103ec565b60405161013f9190611a9f565b60405180910390f35b610162600480360381019061015d919061178a565b61047e565b60405161016f9190611a1d565b60405180910390f35b610192600480360381019061018d91906116f0565b610503565b005b61019c61061b565b6040516101a99190611c61565b60405180910390f35b6101cc60048036038101906101c791906115da565b610621565b005b6101e860048036038101906101e391906115da565b610681565b005b61020460048036038101906101ff919061178a565b6106a1565b6040516102119190611a1d565b60405180910390f35b610234600480360381019061022f919061156d565b610753565b6040516102419190611c61565b60405180910390f35b61025261080b565b60405161025f9190611a9f565b60405180910390f35b610282600480360381019061027d91906116b0565b61089d565b005b61029e6004803603810190610299919061162d565b6108b3565b005b6102a8610915565b005b6102c460048036038101906102bf919061178a565b61093d565b6040516102d19190611a9f565b60405180910390f35b6102f460048036038101906102ef919061159a565b610944565b6040516103019190611a84565b60405180910390f35b60007f80ac58cd000000000000000000000000000000000000000000000000000000007bffffffffffffffffffffffffffffffffffffffffffffffffffffffff1916827bffffffffffffffffffffffffffffffffffffffffffffffffffffffff191614806103d557507f5b5e139f000000000000000000000000000000000000000000000000000000007bffffffffffffffffffffffffffffffffffffffffffffffffffffffff1916827bffffffffffffffffffffffffffffffffffffffffffffffffffffffff1916145b806103e557506103e4826109d8565b5b9050919050565b6060600080546103fb90611e4a565b80601f016020809104026020016040519081016040528092919081815260200182805461042790611e4a565b80156104745780601f1061044957610100808354040283529160200191610474565b820191906000526020600020905b81548152906001019060200180831161045757829003601f168201915b5050505050905090565b600061048982610a42565b6104c8576040517f08c379a00000000000000000000000000000000000000000000000000000000081526004016104bf90611c01565b60405180910390fd5b6004600083815260200190815260200160002060009054906101000a900473ffffffffffffffffffffffffffffffffffffffff169050919050565b600061050e826106a1565b90508073ffffffffffffffffffffffffffffffffffffffff168373ffffffffffffffffffffffffffffffffffffffff16141561057f576040517f08c379a000000000000000000000000000000000000000000000000000000000815260040161057690611c21565b60405180910390fd5b8073ffffffffffffffffffffffffffffffffffffffff1661059e610aae565b73ffffffffffffffffffffffffffffffffffffffff1614806105cd57506105cc816105c7610aae565b610944565b5b61060c576040517f08c379a000000000000000000000000000000000000000000000000000000000815260040161060390611b81565b60405180910390fd5b6106168383610ab6565b505050565b60065481565b61063261062c610aae565b82610b6f565b610671576040517f08c379a000000000000000000000000000000000000000000000000000000000815260040161066890611c41565b60405180910390fd5b61067c838383610c4d565b505050565b61069c838383604051806020016040528060008152506108b3565b505050565b6000806002600084815260200190815260200160002060009054906101000a900473ffffffffffffffffffffffffffffffffffffffff169050600073ffffffffffffffffffffffffffffffffffffffff168173ffffffffffffffffffffffffffffffffffffffff16141561074a576040517f08c379a000000000000000000000000000000000000000000000000000000000815260040161074190611bc1565b60405180910390fd5b80915050919050565b60008073ffffffffffffffffffffffffffffffffffffffff168273ffffffffffffffffffffffffffffffffffffffff1614156107c4576040517f08c379a00000000000000000000000000000000000000000000000000000000081526004016107bb90611ba1565b60405180910390fd5b600360008373ffffffffffffffffffffffffffffffffffffffff1673ffffffffffffffffffffffffffffffffffffffff168152602001908152602001600020549050919050565b60606001805461081a90611e4a565b80601f016020809104026020016040519081016040528092919081815260200182805461084690611e4a565b80156108935780601f1061086857610100808354040283529160200191610893565b820191906000526020600020905b81548152906001019060200180831161087657829003601f168201915b5050505050905090565b6108af6108a8610aae565b8383610eb4565b5050565b6108c46108be610aae565b83610b6f565b610903576040517f08c379a00000000000000000000000000000000000000000000000000000000081526004016108fa90611c41565b60405180910390fd5b61090f84848484611021565b50505050565b6109213360065461107d565b6001600660008282546109349190611d0a565b92505081905550565b6060919050565b6000600560008473ffffffffffffffffffffffffffffffffffffffff1673ffffffffffffffffffffffffffffffffffffffff16815260200190815260200160002060008373ffffffffffffffffffffffffffffffffffffffff1673ffffffffffffffffffffffffffffffffffffffff16815260200190815260200160002060009054906101000a900460ff16905092915050565b60007f01ffc9a7000000000000000000000000000000000000000000000000000000007bffffffffffffffffffffffffffffffffffffffffffffffffffffffff1916827bffffffffffffffffffffffffffffffffffffffffffffffffffffffff1916149050919050565b60008073ffffffffffffffffffffffffffffffffffffffff166002600084815260200190815260200160002060009054906101000a900473ffffffffffffffffffffffffffffffffffffffff1673ffffffffffffffffffffffffffffffffffffffff1614159050919050565b600033905090565b816004600083815260200190815260200160002060006101000a81548173ffffffffffffffffffffffffffffffffffffffff021916908373ffffffffffffffffffffffffffffffffffffffff160217905550808273ffffffffffffffffffffffffffffffffffffffff16610b29836106a1565b73ffffffffffffffffffffffffffffffffffffffff167f8c5be1e5ebec7d5bd14f71427d1e84f3dd0314c0f7b2291e5b200ac8c7c3b92560405160405180910390a45050565b6000610b7a82610a42565b610bb9576040517f08c379a0000000000000000000000000000000000000000000000000000000008152600401610bb090611b61565b60405180910390fd5b6000610bc4836106a1565b90508073ffffffffffffffffffffffffffffffffffffffff168473ffffffffffffffffffffffffffffffffffffffff161480610c065750610c058185610944565b5b80610c4457508373ffffffffffffffffffffffffffffffffffffffff16610c2c8461047e565b73ffffffffffffffffffffffffffffffffffffffff16145b91505092915050565b8273ffffffffffffffffffffffffffffffffffffffff16610c6d826106a1565b73ffffffffffffffffffffffffffffffffffffffff1614610cc3576040517f08c379a0000000000000000000000000000000000000000000000000000000008152600401610cba90611ae1565b60405180910390fd5b600073ffffffffffffffffffffffffffffffffffffffff168273ffffffffffffffffffffffffffffffffffffffff161415610d33576040517f08c379a0000000000000000000000000000000000000000000000000000000008152600401610d2a90611b21565b60405180910390fd5b610d3e83838361109b565b610d49600082610ab6565b6001600360008573ffffffffffffffffffffffffffffffffffffffff1673ffffffffffffffffffffffffffffffffffffffff1681526020019081526020016000206000828254610d999190611d60565b925050819055506001600360008473ffffffffffffffffffffffffffffffffffffffff1673ffffffffffffffffffffffffffffffffffffffff1681526020019081526020016000206000828254610df09190611d0a565b92505081905550816002600083815260200190815260200160002060006101000a81548173ffffffffffffffffffffffffffffffffffffffff021916908373ffffffffffffffffffffffffffffffffffffffff160217905550808273ffffffffffffffffffffffffffffffffffffffff168473ffffffffffffffffffffffffffffffffffffffff167fddf252ad1be2c89b69c2b068fc378daa952ba7f163c4a11628f55a4df523b3ef60405160405180910390a4610eaf8383836110a0565b505050565b8173ffffffffffffffffffffffffffffffffffffffff168373ffffffffffffffffffffffffffffffffffffffff161415610f23576040517f08c379a0000000000000000000000000000000000000000000000000000000008152600401610f1a90611b41565b60405180910390fd5b80600560008573ffffffffffffffffffffffffffffffffffffffff1673ffffffffffffffffffffffffffffffffffffffff16815260200190815260200160002060008473ffffffffffffffffffffffffffffffffffffffff1673ffffffffffffffffffffffffffffffffffffffff16815260200190815260200160002060006101000a81548160ff0219169083151502179055508173ffffffffffffffffffffffffffffffffffffffff168373ffffffffffffffffffffffffffffffffffffffff167f17307eab39ab6107e8899845ad3d59bd9653f200f220920489ca2b5937696c31836040516110149190611a84565b60405180910390a3505050565b61102c848484610c4d565b611038848484846110a5565b611077576040517f08c379a000000000000000000000000000000000000000000000000000000000815260040161106e90611ac1565b60405180910390fd5b50505050565b61109782826040518060200160405280600081525061123c565b5050565b505050565b505050565b60006110c68473ffffffffffffffffffffffffffffffffffffffff16611297565b1561122f578373ffffffffffffffffffffffffffffffffffffffff1663150b7a026110ef610aae565b8786866040518563ffffffff1660e01b81526004016111119493929190611a38565b602060405180830381600087803b15801561112b57600080fd5b505af192505050801561115c57506040513d601f19601f82011682018060405250810190611159919061175d565b60015b6111df573d806000811461118c576040519150601f19603f3d011682016040523d82523d6000602084013e611191565b606091505b506000815114156111d7576040517f08c379a00000000000000000000000000000000000000000000000000000000081526004016111ce90611ac1565b60405180910390fd5b805181602001fd5b63150b7a0260e01b7bffffffffffffffffffffffffffffffffffffffffffffffffffffffff1916817bffffffffffffffffffffffffffffffffffffffffffffffffffffffff191614915050611234565b600190505b949350505050565b61124683836112ba565b61125360008484846110a5565b611292576040517f08c379a000000000000000000000000000000000000000000000000000000000815260040161128990611ac1565b60405180910390fd5b505050565b6000808273ffffffffffffffffffffffffffffffffffffffff163b119050919050565b600073ffffffffffffffffffffffffffffffffffffffff168273ffffffffffffffffffffffffffffffffffffffff16141561132a576040517f08c379a000000000000000000000000000000000000000000000000000000000815260040161132190611be1565b60405180910390fd5b61133381610a42565b15611373576040517f08c379a000000000000000000000000000000000000000000000000000000000815260040161136a90611b01565b60405180910390fd5b61137f6000838361109b565b6001600360008473ffffffffffffffffffffffffffffffffffffffff1673ffffffffffffffffffffffffffffffffffffffff16815260200190815260200160002060008282546113cf9190611d0a565b92505081905550816002600083815260200190815260200160002060006101000a81548173ffffffffffffffffffffffffffffffffffffffff021916908373ffffffffffffffffffffffffffffffffffffffff160217905550808273ffffffffffffffffffffffffffffffffffffffff16600073ffffffffffffffffffffffffffffffffffffffff167fddf252ad1be2c89b69c2b068fc378daa952ba7f163c4a11628f55a4df523b3ef60405160405180910390a4611490600083836110a0565b5050565b60006114a76114a284611ca1565b611c7c565b9050828152602081018484840111156114c3576114c2611f3f565b5b6114ce848285611e08565b509392505050565b6000813590506114e5816122f0565b92915050565b6000813590506114fa81612307565b92915050565b60008135905061150f8161231e565b92915050565b6000815190506115248161231e565b92915050565b600082601f83011261153f5761153e611f3a565b5b813561154f848260208601611494565b91505092915050565b60008135905061156781612335565b92915050565b60006020828403121561158357611582611f49565b5b6000611591848285016114d6565b91505092915050565b600080604083850312156115b1576115b0611f49565b5b60006115bf858286016114d6565b92505060206115d0858286016114d6565b9150509250929050565b6000806000606084860312156115f3576115f2611f49565b5b6000611601868287016114d6565b9350506020611612868287016114d6565b925050604061162386828701611558565b9150509250925092565b6000806000806080858703121561164757611646611f49565b5b6000611655878288016114d6565b9450506020611666878288016114d6565b935050604061167787828801611558565b925050606085013567ffffffffffffffff81111561169857611697611f44565b5b6116a48782880161152a565b91505092959194509250565b600080604083850312156116c7576116c6611f49565b5b60006116d5858286016114d6565b92505060206116e6858286016114eb565b9150509250929050565b6000806040838503121561170757611706611f49565b5b6000611715858286016114d6565b925050602061172685828601611558565b9150509250929050565b60006020828403121561174657611745611f49565b5b600061175484828501611500565b91505092915050565b60006020828403121561177357611772611f49565b5b600061178184828501611515565b91505092915050565b6000602082840312156117a05761179f611f49565b5b60006117ae84828501611558565b91505092915050565b6117c081611d94565b82525050565b6117cf81611da6565b82525050565b60006117e082611cd2565b6117ea8185611ce8565b93506117fa818560208601611e17565b61180381611f4e565b840191505092915050565b600061181982611cdd565b6118238185611cf9565b9350611833818560208601611e17565b61183c81611f4e565b840191505092915050565b6000611854603283611cf9565b915061185f82611f5f565b604082019050919050565b6000611877602583611cf9565b915061188282611fae565b604082019050919050565b600061189a601c83611cf9565b91506118a582611ffd565b602082019050919050565b60006118bd602483611cf9565b91506118c882612026565b604082019050919050565b60006118e0601983611cf9565b91506118eb82612075565b602082019050919050565b6000611903602c83611cf9565b915061190e8261209e565b604082019050919050565b6000611926603883611cf9565b9150611931826120ed565b604082019050919050565b6000611949602a83611cf9565b91506119548261213c565b604082019050919050565b600061196c602983611cf9565b91506119778261218b565b604082019050919050565b600061198f602083611cf9565b915061199a826121da565b602082019050919050565b60006119b2602c83611cf9565b91506119bd82612203565b604082019050919050565b60006119d5602183611cf9565b91506119e082612252565b604082019050919050565b60006119f8603183611cf9565b9150611a03826122a1565b604082019050919050565b611a1781611dfe565b82525050565b6000602082019050611a3260008301846117b7565b92915050565b6000608082019050611a4d60008301876117b7565b611a5a60208301866117b7565b611a676040830185611a0e565b8181036060830152611a7981846117d5565b905095945050505050565b6000602082019050611a9960008301846117c6565b92915050565b60006020820190508181036000830152611ab9818461180e565b905092915050565b60006020820190508181036000830152611ada81611847565b9050919050565b60006020820190508181036000830152611afa8161186a565b9050919050565b60006020820190508181036000830152611b1a8161188d565b9050919050565b60006020820190508181036000830152611b3a816118b0565b9050919050565b60006020820190508181036000830152611b5a816118d3565b9050919050565b60006020820190508181036000830152611b7a816118f6565b9050919050565b60006020820190508181036000830152611b9a81611919565b9050919050565b60006020820190508181036000830152611bba8161193c565b9050919050565b60006020820190508181036000830152611bda8161195f565b9050919050565b60006020820190508181036000830152611bfa81611982565b9050919050565b60006020820190508181036000830152611c1a816119a5565b9050919050565b60006020820190508181036000830152611c3a816119c8565b9050919050565b60006020820190508181036000830152611c5a816119eb565b9050919050565b6000602082019050611c766000830184611a0e565b92915050565b6000611c86611c97565b9050611c928282611e7c565b919050565b6000604051905090565b600067ffffffffffffffff821115611cbc57611cbb611f0b565b5b611cc582611f4e565b9050602081019050919050565b600081519050919050565b600081519050919050565b600082825260208201905092915050565b600082825260208201905092915050565b6000611d1582611dfe565b9150611d2083611dfe565b9250827fffffffffffffffffffffffffffffffffffffffffffffffffffffffffffffffff03821115611d5557611d54611ead565b5b828201905092915050565b6000611d6b82611dfe565b9150611d7683611dfe565b925082821015611d8957611d88611ead565b5b828203905092915050565b6000611d9f82611dde565b9050919050565b60008115159050919050565b60007fffffffff0000000000000000000000000000000000000000000000000000000082169050919050565b600073ffffffffffffffffffffffffffffffffffffffff82169050919050565b6000819050919050565b82818337600083830152505050565b60005b83811015611e35578082015181840152602081019050611e1a565b83811115611e44576000848401525b50505050565b60006002820490506001821680611e6257607f821691505b60208210811415611e7657611e75611edc565b5b50919050565b611e8582611f4e565b810181811067ffffffffffffffff82111715611ea457611ea3611f0b565b5b80604052505050565b7f4e487b7100000000000000000000000000000000000000000000000000000000600052601160045260246000fd5b7f4e487b7100000000000000000000000000000000000000000000000000000000600052602260045260246000fd5b7f4e487b7100000000000000000000000000000000000000000000000000000000600052604160045260246000fd5b600080fd5b600080fd5b600080fd5b600080fd5b6000601f19601f8301169050919050565b7f4552433732313a207472616e7366657220746f206e6f6e20455243373231526560008201527f63656976657220696d706c656d656e7465720000000000000000000000000000602082015250565b7f4552433732313a207472616e736665722066726f6d20696e636f72726563742060008201527f6f776e6572000000000000000000000000000000000000000000000000000000602082015250565b7f4552433732313a20746f6b656e20616c7265616479206d696e74656400000000600082015250565b7f4552433732313a207472616e7366657220746f20746865207a65726f2061646460008201527f7265737300000000000000000000000000000000000000000000000000000000602082015250565b7f4552433732313a20617070726f766520746f2063616c6c657200000000000000600082015250565b7f4552433732313a206f70657261746f7220717565727920666f72206e6f6e657860008201527f697374656e7420746f6b656e0000000000000000000000000000000000000000602082015250565b7f4552433732313a20617070726f76652063616c6c6572206973206e6f74206f7760008201527f6e6572206e6f7220617070726f76656420666f7220616c6c0000000000000000602082015250565b7f4552433732313a2062616c616e636520717565727920666f7220746865207a6560008201527f726f206164647265737300000000000000000000000000000000000000000000602082015250565b7f4552433732313a206f776e657220717565727920666f72206e6f6e657869737460008201527f656e7420746f6b656e0000000000000000000000000000000000000000000000602082015250565b7f4552433732313a206d696e7420746f20746865207a65726f2061646472657373600082015250565b7f4552433732313a20617070726f76656420717565727920666f72206e6f6e657860008201527f697374656e7420746f6b656e0000000000000000000000000000000000000000602082015250565b7f4552433732313a20617070726f76616c20746f2063757272656e74206f776e6560008201527f7200000000000000000000000000000000000000000000000000000000000000602082015250565b7f4552433732313a207472616e736665722063616c6c6572206973206e6f74206f60008201527f776e6572206e6f7220617070726f766564000000000000000000000000000000602082015250565b6122f981611d94565b811461230457600080fd5b50565b61231081611da6565b811461231b57600080fd5b50565b61232781611db2565b811461233257600080fd5b50565b61233e81611dfe565b811461234957600080fd5b5056fea264697066735822122084d2608cd5d864d848a986ab0e0b3a84af6b09beaa0df14e4f8e7f05fd6118e164736f6c63430008070033",
  "linkReferences": {},
  "deployedLinkReferences": {}
}